{
  "transactions": [
    {
      "hash": "0x2abbc793aeba3f8e1443b3ad909aaac308c5eb48224bbeea27aa80d124969cdc",
      "transactionType": "CALL",
      "contractName": null,
      "contractAddress": "0x759449068ad81e04fd223fe0f1da790f17426204",
      "function": "createMarket(string,string,uint256,uint256,address)",
      "arguments": [
        "Will Bitcoin hit $100,000 by end of 2024?",
        "Market resolves based on CoinDesk price feed",
        "1760939304",
        "1761025704",
        "0xfE1757e4E3C6050d592b54A3060ED3A47eaCA898"
      ],
      "transaction": {
        "from": "0xb39ebd4ad032a4758f6876e2cc26240692f20a5d",
        "to": "0x759449068ad81e04fd223fe0f1da790f17426204",
        "gas": "0x51d11",
        "value": "0x0",
        "input": "0x2db0521f00000000000000000000000000000000000000000000000000000000000000a000000000000000000000000000000000000000000000000000000000000001000000000000000000000000000000000000000000000000000000000068f5cd280000000000000000000000000000000000000000000000000000000068f71ea8000000000000000000000000fe1757e4e3c6050d592b54a3060ed3a47eaca898000000000000000000000000000000000000000000000000000000000000002957696c6c20426974636f696e2068697420243130302c30303020627920656e64206f6620323032343f0000000000000000000000000000000000000000000000000000000000000000000000000000000000000000000000000000000000002c4d61726b6574207265736f6c766573206261736564206f6e20436f696e4465736b20707269636520666565640000000000000000000000000000000000000000",
        "nonce": "0x10",
        "chainId": "0x66eee"
      },
      "additionalContracts": [],
      "isFixedGasLimit": false
    },
    {
      "hash": "0x5697aa03fc1dbf130b6e128a7983cb2e6e699e52b6e38837e0b0ff8b407cdf98",
      "transactionType": "CALL",
      "contractName": null,
      "contractAddress": "0x759449068ad81e04fd223fe0f1da790f17426204",
      "function": "createMarket(string,string,uint256,uint256,address)",
      "arguments": [
        "Will it rain in New York tomorrow?",
        "Based on weather.gov API data",
        "1758433704",
        "1758520104",
        "0xfE1757e4E3C6050d592b54A3060ED3A47eaCA898"
      ],
      "transaction": {
        "from": "0xb39ebd4ad032a4758f6876e2cc26240692f20a5d",
        "to": "0x759449068ad81e04fd223fe0f1da790f17426204",
        "gas": "0x437d7",
        "value": "0x0",
        "input": "0x2db0521f00000000000000000000000000000000000000000000000000000000000000a000000000000000000000000000000000000000000000000000000000000001000000000000000000000000000000000000000000000000000000000068cf91a80000000000000000000000000000000000000000000000000000000068d0e328000000000000000000000000fe1757e4e3c6050d592b54a3060ed3a47eaca898000000000000000000000000000000000000000000000000000000000000002257696c6c206974207261696e20696e204e657720596f726b20746f6d6f72726f773f000000000000000000000000000000000000000000000000000000000000000000000000000000000000000000000000000000000000000000000000001d4261736564206f6e20776561746865722e676f76204150492064617461000000",
        "nonce": "0x11",
        "chainId": "0x66eee"
      },
      "additionalContracts": [],
      "isFixedGasLimit": false
    },
    {
      "hash": "0x963e130fbc1cfb8fbcd0fd396f6724871d16eaab1988b0ef3023727a9f2de105",
      "transactionType": "CALL",
      "contractName": null,
      "contractAddress": "0x759449068ad81e04fd223fe0f1da790f17426204",
      "function": "createMarket(string,string,uint256,uint256,address)",
      "arguments": [
        "Will Ethereum be above $3000 next week?",
        "Resolves via Chainlink ETH/USD price feed",
        "1758952104",
        "1759038504",
        "0xfE1757e4E3C6050d592b54A3060ED3A47eaCA898"
      ],
      "transaction": {
        "from": "0xb39ebd4ad032a4758f6876e2cc26240692f20a5d",
        "to": "0x759449068ad81e04fd223fe0f1da790f17426204",
        "gas": "0x51cc2",
        "value": "0x0",
        "input": "0x2db0521f00000000000000000000000000000000000000000000000000000000000000a000000000000000000000000000000000000000000000000000000000000001000000000000000000000000000000000000000000000000000000000068d77aa80000000000000000000000000000000000000000000000000000000068d8cc28000000000000000000000000fe1757e4e3c6050d592b54a3060ed3a47eaca898000000000000000000000000000000000000000000000000000000000000002757696c6c20457468657265756d2062652061626f7665202433303030206e657874207765656b3f0000000000000000000000000000000000000000000000000000000000000000000000000000000000000000000000000000000000000000295265736f6c7665732076696120436861696e6c696e6b204554482f55534420707269636520666565640000000000000000000000000000000000000000000000",
        "nonce": "0x12",
        "chainId": "0x66eee"
      },
      "additionalContracts": [],
      "isFixedGasLimit": false
    }
  ],
  "receipts": [
    {
      "status": "0x1",
      "cumulativeGasUsed": "0x3e286",
      "logs": [
        {
          "address": "0x759449068ad81e04fd223fe0f1da790f17426204",
          "topics": [
            "0x2d1e9ad45dbe8e898e0374deebf2a661b2ae7c1855d2a29507d584c35d287c75",
            "0x0000000000000000000000000000000000000000000000000000000000000000"
          ],
          "data": "0x00000000000000000000000000000000000000000000000000000000000000400000000000000000000000000000000000000000000000000000000068f5cd28000000000000000000000000000000000000000000000000000000000000002957696c6c20426974636f696e2068697420243130302c30303020627920656e64206f6620323032343f0000000000000000000000000000000000000000000000",
          "blockHash": "0x5ea31b277f23154d2fe0b22e87d8a5c268bb1ba70c390260c6a3909ca89fac8c",
          "blockNumber": "0xbb14f8f",
          "transactionHash": "0x2abbc793aeba3f8e1443b3ad909aaac308c5eb48224bbeea27aa80d124969cdc",
          "transactionIndex": "0x1",
          "logIndex": "0x0",
          "removed": false
        }
      ],
      "logsBloom": "0x00000000000000000000000800000000000080000000000000000000000000000000000000000000000000000000000000000000000000000000000000000000000000000000000000000000004000000000000000000000000000000000000000000000020000000000000080000800000000000000000000000002000000020000000000000000000000000000000000000000000000000000000000000000000000000000000000000000000000000000000000000000000000000000000000000000000000000000000000000000000000000000000000000000000020000000000000000000000000000000000000000000000000000000000000000000",
      "type": "0x2",
      "transactionHash": "0x2abbc793aeba3f8e1443b3ad909aaac308c5eb48224bbeea27aa80d124969cdc",
      "transactionIndex": "0x1",
      "blockHash": "0x5ea31b277f23154d2fe0b22e87d8a5c268bb1ba70c390260c6a3909ca89fac8c",
      "blockNumber": "0xbb14f8f",
      "gasUsed": "0x3e286",
      "effectiveGasPrice": "0x5f5e100",
      "from": "0xb39ebd4ad032a4758f6876e2cc26240692f20a5d",
      "to": "0x759449068ad81e04fd223fe0f1da790f17426204",
      "contractAddress": null,
      "gasUsedForL1": "0x0",
      "l1BlockNumber": "0x8cfe66",
      "timeboosted": false
    },
    {
      "status": "0x1",
      "cumulativeGasUsed": "0x3655c",
      "logs": [
        {
          "address": "0x759449068ad81e04fd223fe0f1da790f17426204",
          "topics": [
            "0x2d1e9ad45dbe8e898e0374deebf2a661b2ae7c1855d2a29507d584c35d287c75",
            "0x0000000000000000000000000000000000000000000000000000000000000001"
          ],
          "data": "0x00000000000000000000000000000000000000000000000000000000000000400000000000000000000000000000000000000000000000000000000068cf91a8000000000000000000000000000000000000000000000000000000000000002257696c6c206974207261696e20696e204e657720596f726b20746f6d6f72726f773f000000000000000000000000000000000000000000000000000000000000",
          "blockHash": "0x571f96b175aa7c5d44a308dbde316fe96719c17e3efd89b3bad6960f2a56607f",
          "blockNumber": "0xbb14f98",
          "transactionHash": "0x5697aa03fc1dbf130b6e128a7983cb2e6e699e52b6e38837e0b0ff8b407cdf98",
          "transactionIndex": "0x2",
          "logIndex": "0x1",
          "removed": false
        }
      ],
      "logsBloom": "0x00000000000000000000000800000000000080000000000000000000000000000000000000000000000000000000000000000000000000000000000000040000000000000000000000000000004000000000000000040000000000000000000000000000000000000000000080000000000000000000000000000002000000020000000000000000000000000000000000000000000000000000000000000000000000000000000000000000000000000000000000000000000000000000000000000000000000000000000000000000000000000000000000000000000040000000000000000000000000000000000000000000000000000000000000000000",
      "type": "0x2",
      "transactionHash": "0x5697aa03fc1dbf130b6e128a7983cb2e6e699e52b6e38837e0b0ff8b407cdf98",
      "transactionIndex": "0x2",
      "blockHash": "0x571f96b175aa7c5d44a308dbde316fe96719c17e3efd89b3bad6960f2a56607f",
      "blockNumber": "0xbb14f98",
      "gasUsed": "0x2f0ca",
      "effectiveGasPrice": "0x5f5e100",
      "from": "0xb39ebd4ad032a4758f6876e2cc26240692f20a5d",
      "to": "0x759449068ad81e04fd223fe0f1da790f17426204",
      "contractAddress": null,
      "gasUsedForL1": "0x0",
      "l1BlockNumber": "0x8cfe66",
      "timeboosted": false
    },
    {
      "status": "0x1",
      "cumulativeGasUsed": "0xea973",
      "logs": [
        {
          "address": "0x759449068ad81e04fd223fe0f1da790f17426204",
          "topics": [
            "0x2d1e9ad45dbe8e898e0374deebf2a661b2ae7c1855d2a29507d584c35d287c75",
            "0x0000000000000000000000000000000000000000000000000000000000000002"
          ],
          "data": "0x00000000000000000000000000000000000000000000000000000000000000400000000000000000000000000000000000000000000000000000000068d77aa8000000000000000000000000000000000000000000000000000000000000002757696c6c20457468657265756d2062652061626f7665202433303030206e657874207765656b3f00000000000000000000000000000000000000000000000000",
          "blockHash": "0xe41e164b6bc6dfd5e75e09262f8af3614f379815fb3fed3f3f7970a67c0ff585",
          "blockNumber": "0xbb14fa0",
          "transactionHash": "0x963e130fbc1cfb8fbcd0fd396f6724871d16eaab1988b0ef3023727a9f2de105",
          "transactionIndex": "0x3",
          "logIndex": "0x2",
          "removed": false
        }
      ],
      "logsBloom": "0x04000000000000000000000800000000000080000000000000000000000000000000000000000000000000000000000000000000000000000000000000000000000000000000000000000000004000000000000000000000000000000000000000000000000000000000000080000000000000000000000000000002000000020000000000000000000000000000000000000000000000000000000000000000000000000000000000000100000000000000000000000000000000000000000000000000000000000000000000000000000000000000000000000000000000000000000000000000000000000000000000000000008000000000000000000000",
      "type": "0x2",
      "transactionHash": "0x963e130fbc1cfb8fbcd0fd396f6724871d16eaab1988b0ef3023727a9f2de105",
      "transactionIndex": "0x3",
      "blockHash": "0xe41e164b6bc6dfd5e75e09262f8af3614f379815fb3fed3f3f7970a67c0ff585",
      "blockNumber": "0xbb14fa0",
      "gasUsed": "0x39f7e",
      "effectiveGasPrice": "0x5f5e100",
      "from": "0xb39ebd4ad032a4758f6876e2cc26240692f20a5d",
      "to": "0x759449068ad81e04fd223fe0f1da790f17426204",
      "contractAddress": null,
      "gasUsedForL1": "0x0",
      "l1BlockNumber": "0x8cfe66",
      "timeboosted": false
    }
  ],
  "libraries": [],
  "pending": [],
  "returns": {},
  "timestamp": 1758347328936,
  "chain": 421614,
  "commit": null
}